{"contracts/AgroInvest.sol":{"AgroInvest":{"abi":[{"anonymous":false,"inputs":[{"indexed":true,"internalType":"address","name":"user","type":"address"},{"indexed":false,"internalType":"uint256","name":"timestamp","type":"uint256"}],"name":"Interaction","type":"event"},{"inputs":[],"name":"ping","outputs":[],"stateMutability":"nonpayable","type":"function"}],"evm":{"bytecode":{"linkReferences":{},"object":"6080604052348015600f57600080fd5b5060a28061001e6000396000f3fe6080604052348015600f57600080fd5b506004361060285760003560e01c80635c36b18614602d575b600080fd5b60336035565b005b60405142815233907ff12489dc722d1cccd7b674152f04c8cce3e81ceb99919ed914fc0a318923c2c49060200160405180910390a256fea26469706673582212203164c17ae1cb92ee05ced959a411201cd373fbe792d7e4e9a6f4f0a70efb3a2064736f6c63430008140033","opcodes":"PUSH1 0x80 PUSH1 0x40 MSTORE CALLVALUE DUP1 ISZERO PUSH1 0xF JUMPI PUSH1 0x0 DUP1 REVERT JUMPDEST POP PUSH1 0xA2 DUP1 PUSH2 0x1E PUSH1 0x0 CODECOPY PUSH1 0x0 RETURN INVALID PUSH1 0x80 PUSH1 0x40 MSTORE CALLVALUE DUP1 ISZERO PUSH1 0xF JUMPI PUSH1 0x0 DUP1 REVERT JUMPDEST POP PUSH1 0x4 CALLDATASIZE LT PUSH1 0x28 JUMPI PUSH1 0x0 CALLDATALOAD PUSH1 0xE0 SHR DUP1 PUSH4 0x5C36B186 EQ PUSH1 0x2D JUMPI JUMPDEST PUSH1 0x0 DUP1 REVERT JUMPDEST PUSH1 0x33 PUSH1 0x35 JUMP JUMPDEST STOP JUMPDEST PUSH1 0x40 MLOAD TIMESTAMP DUP2 MSTORE CALLER SWAP1 PUSH32 0xF12489DC722D1CCCD7B674152F04C8CCE3E81CEB99919ED914FC0A318923C2C4 SWAP1 PUSH1 0x20 ADD PUSH1 0x40 MLOAD DUP1 SWAP2 SUB SWAP1 LOG2 JUMP INVALID LOG2 PUSH5 0x6970667358 0x22 SLT KECCAK256 BALANCE PUSH5 0xC17AE1CB92 0xEE SDIV 0xCE 0xD9 MSIZE LOG4 GT KECCAK256 SHR 0xD3 PUSH20 0xFBE792D7E4E9A6F4F0A70EFB3A2064736F6C6343 STOP ADDMOD EQ STOP CALLER "},"methodIdentifiers":{"ping()":"5c36b186"}}}}}